{
  "_format": "hh-sol-artifact-1",
  "contractName": "DFtp",
  "sourceName": "contracts/Dftp.sol",
  "abi": [
    {
      "inputs": [
        {
          "internalType": "uint256",
          "name": "_id",
          "type": "uint256"
        },
        {
          "internalType": "string",
          "name": "_name",
          "type": "string"
        },
        {
          "internalType": "string",
          "name": "_description",
          "type": "string"
        },
        {
          "internalType": "string",
          "name": "_hashUrl",
          "type": "string"
        },
        {
          "internalType": "string",
          "name": "_category",
          "type": "string"
        },
        {
          "internalType": "address",
          "name": "_author",
          "type": "address"
        },
        {
          "internalType": "address[]",
          "name": "_sharedPeers",
          "type": "address[]"
        }
      ],
      "name": "addFile",
      "outputs": [],
      "stateMutability": "nonpayable",
      "type": "function"
    },
    {
      "inputs": [],
      "name": "getAllPrivateSharedFiles",
      "outputs": [
        {
          "components": [
            {
              "internalType": "uint256",
              "name": "id",
              "type": "uint256"
            },
            {
              "internalType": "string",
              "name": "name",
              "type": "string"
            },
            {
              "internalType": "string",
              "name": "description",
              "type": "string"
            },
            {
              "internalType": "string",
              "name": "hashUrl",
              "type": "string"
            },
            {
              "internalType": "string",
              "name": "category",
              "type": "string"
            },
            {
              "internalType": "address",
              "name": "author",
              "type": "address"
            },
            {
              "internalType": "address[]",
              "name": "sharedPeers",
              "type": "address[]"
            }
          ],
          "internalType": "struct DFtp.Data[]",
          "name": "",
          "type": "tuple[]"
        }
      ],
      "stateMutability": "view",
      "type": "function"
    },
    {
      "inputs": [],
      "name": "getAllPublicSharedFiles",
      "outputs": [
        {
          "components": [
            {
              "internalType": "uint256",
              "name": "id",
              "type": "uint256"
            },
            {
              "internalType": "string",
              "name": "name",
              "type": "string"
            },
            {
              "internalType": "string",
              "name": "description",
              "type": "string"
            },
            {
              "internalType": "string",
              "name": "hashUrl",
              "type": "string"
            },
            {
              "internalType": "string",
              "name": "category",
              "type": "string"
            },
            {
              "internalType": "address",
              "name": "author",
              "type": "address"
            },
            {
              "internalType": "address[]",
              "name": "sharedPeers",
              "type": "address[]"
            }
          ],
          "internalType": "struct DFtp.Data[]",
          "name": "",
          "type": "tuple[]"
        }
      ],
      "stateMutability": "view",
      "type": "function"
    },
    {
      "inputs": [],
      "name": "getAllUploadedFiles",
      "outputs": [
        {
          "components": [
            {
              "internalType": "uint256",
              "name": "id",
              "type": "uint256"
            },
            {
              "internalType": "string",
              "name": "name",
              "type": "string"
            },
            {
              "internalType": "string",
              "name": "description",
              "type": "string"
            },
            {
              "internalType": "string",
              "name": "hashUrl",
              "type": "string"
            },
            {
              "internalType": "string",
              "name": "category",
              "type": "string"
            },
            {
              "internalType": "address",
              "name": "author",
              "type": "address"
            },
            {
              "internalType": "address[]",
              "name": "sharedPeers",
              "type": "address[]"
            }
          ],
          "internalType": "struct DFtp.Data[]",
          "name": "",
          "type": "tuple[]"
        }
      ],
      "stateMutability": "view",
      "type": "function"
    }
  ],
  "bytecode": "0x608060405234801561001057600080fd5b50611acc806100206000396000f3fe608060405234801561001057600080fd5b506004361061004c5760003560e01c80635dae4dff1461005157806375969bb61461006f578063e46215ca1461008d578063f195cbde146100a9575b600080fd5b6100596100c7565b60405161006691906117c0565b60405180910390f35b610077610591565b60405161008491906117c0565b60405180910390f35b6100a760048036038101906100a29190611498565b610aad565b005b6100b1610c56565b6040516100be91906117c0565b60405180910390f35b606080600080805480602002602001604051908101604052809291908181526020016000905b8282101561045557838290600052602060002090600702016040518060e00160405290816000820154815260200160018201805461012a9061194f565b80601f01602080910402602001604051908101604052809291908181526020018280546101569061194f565b80156101a35780601f10610178576101008083540402835291602001916101a3565b820191906000526020600020905b81548152906001019060200180831161018657829003601f168201915b505050505081526020016002820180546101bc9061194f565b80601f01602080910402602001604051908101604052809291908181526020018280546101e89061194f565b80156102355780601f1061020a57610100808354040283529160200191610235565b820191906000526020600020905b81548152906001019060200180831161021857829003601f168201915b5050505050815260200160038201805461024e9061194f565b80601f016020809104026020016040519081016040528092919081815260200182805461027a9061194f565b80156102c75780601f1061029c576101008083540402835291602001916102c7565b820191906000526020600020905b8154815290600101906020018083116102aa57829003601f168201915b505050505081526020016004820180546102e09061194f565b80601f016020809104026020016040519081016040528092919081815260200182805461030c9061194f565b80156103595780601f1061032e57610100808354040283529160200191610359565b820191906000526020600020905b81548152906001019060200180831161033c57829003601f168201915b505050505081526020016005820160009054906101000a900473ffffffffffffffffffffffffffffffffffffffff1673ffffffffffffffffffffffffffffffffffffffff1673ffffffffffffffffffffffffffffffffffffffff1681526020016006820180548060200260200160405190810160405280929190818152602001828054801561043d57602002820191906000526020600020905b8160009054906101000a900473ffffffffffffffffffffffffffffffffffffffff1673ffffffffffffffffffffffffffffffffffffffff16815260200190600101908083116103f3575b505050505081525050815260200190600101906100ed565b5050505090506000805b8251811015610587573373ffffffffffffffffffffffffffffffffffffffff168382815181106104b8577f4e487b7100000000000000000000000000000000000000000000000000000000600052603260045260246000fd5b602002602001015160a0015173ffffffffffffffffffffffffffffffffffffffff16141561057457828181518110610519577f4e487b7100000000000000000000000000000000000000000000000000000000600052603260045260246000fd5b602002602001015184838151811061055a577f4e487b7100000000000000000000000000000000000000000000000000000000600052603260045260246000fd5b6020026020010181905250818061057090611981565b9250505b808061057f90611981565b91505061045f565b5082935050505090565b606080600080805480602002602001604051908101604052809291908181526020016000905b8282101561091f57838290600052602060002090600702016040518060e0016040529081600082015481526020016001820180546105f49061194f565b80601f01602080910402602001604051908101604052809291908181526020018280546106209061194f565b801561066d5780601f106106425761010080835404028352916020019161066d565b820191906000526020600020905b81548152906001019060200180831161065057829003601f168201915b505050505081526020016002820180546106869061194f565b80601f01602080910402602001604051908101604052809291908181526020018280546106b29061194f565b80156106ff5780601f106106d4576101008083540402835291602001916106ff565b820191906000526020600020905b8154815290600101906020018083116106e257829003601f168201915b505050505081526020016003820180546107189061194f565b80601f01602080910402602001604051908101604052809291908181526020018280546107449061194f565b80156107915780601f1061076657610100808354040283529160200191610791565b820191906000526020600020905b81548152906001019060200180831161077457829003601f168201915b505050505081526020016004820180546107aa9061194f565b80601f01602080910402602001604051908101604052809291908181526020018280546107d69061194f565b80156108235780601f106107f857610100808354040283529160200191610823565b820191906000526020600020905b81548152906001019060200180831161080657829003601f168201915b505050505081526020016005820160009054906101000a900473ffffffffffffffffffffffffffffffffffffffff1673ffffffffffffffffffffffffffffffffffffffff1673ffffffffffffffffffffffffffffffffffffffff1681526020016006820180548060200260200160405190810160405280929190818152602001828054801561090757602002820191906000526020600020905b8160009054906101000a900473ffffffffffffffffffffffffffffffffffffffff1673ffffffffffffffffffffffffffffffffffffffff16815260200190600101908083116108bd575b505050505081525050815260200190600101906105b7565b5050505090506000805b8251811015610aa3573373ffffffffffffffffffffffffffffffffffffffff16838281518110610982577f4e487b7100000000000000000000000000000000000000000000000000000000600052603260045260246000fd5b602002602001015160a0015173ffffffffffffffffffffffffffffffffffffffff16141580156109f7575060018382815181106109e8577f4e487b7100000000000000000000000000000000000000000000000000000000600052603260045260246000fd5b602002602001015160c0015151105b15610a9057828181518110610a35577f4e487b7100000000000000000000000000000000000000000000000000000000600052603260045260246000fd5b6020026020010151848381518110610a76577f4e487b7100000000000000000000000000000000000000000000000000000000600052603260045260246000fd5b60200260200101819052508180610a8c90611981565b9250505b8080610a9b90611981565b915050610929565b5082935050505090565b60006040518060e001604052808a81526020018981526020018881526020018781526020018681526020013373ffffffffffffffffffffffffffffffffffffffff168152602001848480806020026020016040519081016040528093929190818152602001838360200280828437600081840152601f19601f8201169050808301925050505050505081525090506000819080600181540180825580915050600190039060005260206000209060070201600090919091909150600082015181600001556020820151816001019080519060200190610b8d92919061128f565b506040820151816002019080519060200190610baa92919061128f565b506060820151816003019080519060200190610bc792919061128f565b506080820151816004019080519060200190610be492919061128f565b5060a08201518160050160006101000a81548173ffffffffffffffffffffffffffffffffffffffff021916908373ffffffffffffffffffffffffffffffffffffffff16021790555060c0820151816006019080519060200190610c48929190611315565b505050505050505050505050565b606080600080805480602002602001604051908101604052809291908181526020016000905b82821015610fe457838290600052602060002090600702016040518060e001604052908160008201548152602001600182018054610cb99061194f565b80601f0160208091040260200160405190810160405280929190818152602001828054610ce59061194f565b8015610d325780601f10610d0757610100808354040283529160200191610d32565b820191906000526020600020905b815481529060010190602001808311610d1557829003601f168201915b50505050508152602001600282018054610d4b9061194f565b80601f0160208091040260200160405190810160405280929190818152602001828054610d779061194f565b8015610dc45780601f10610d9957610100808354040283529160200191610dc4565b820191906000526020600020905b815481529060010190602001808311610da757829003601f168201915b50505050508152602001600382018054610ddd9061194f565b80601f0160208091040260200160405190810160405280929190818152602001828054610e099061194f565b8015610e565780601f10610e2b57610100808354040283529160200191610e56565b820191906000526020600020905b815481529060010190602001808311610e3957829003601f168201915b50505050508152602001600482018054610e6f9061194f565b80601f0160208091040260200160405190810160405280929190818152602001828054610e9b9061194f565b8015610ee85780601f10610ebd57610100808354040283529160200191610ee8565b820191906000526020600020905b815481529060010190602001808311610ecb57829003601f168201915b505050505081526020016005820160009054906101000a900473ffffffffffffffffffffffffffffffffffffffff1673ffffffffffffffffffffffffffffffffffffffff1673ffffffffffffffffffffffffffffffffffffffff16815260200160068201805480602002602001604051908101604052809291908181526020018280548015610fcc57602002820191906000526020600020905b8160009054906101000a900473ffffffffffffffffffffffffffffffffffffffff1673ffffffffffffffffffffffffffffffffffffffff1681526020019060010190808311610f82575b50505050508152505081526020019060010190610c7c565b5050505090506000805b8251811015611285573373ffffffffffffffffffffffffffffffffffffffff16838281518110611047577f4e487b7100000000000000000000000000000000000000000000000000000000600052603260045260246000fd5b602002602001015160a0015173ffffffffffffffffffffffffffffffffffffffff16141580156110bc575060008382815181106110ad577f4e487b7100000000000000000000000000000000000000000000000000000000600052603260045260246000fd5b602002602001015160c0015151115b156112725760005b8382815181106110fd577f4e487b7100000000000000000000000000000000000000000000000000000000600052603260045260246000fd5b602002602001015160c0015151811015611270573373ffffffffffffffffffffffffffffffffffffffff16848381518110611161577f4e487b7100000000000000000000000000000000000000000000000000000000600052603260045260246000fd5b602002602001015160c0015182815181106111a5577f4e487b7100000000000000000000000000000000000000000000000000000000600052603260045260246000fd5b602002602001015173ffffffffffffffffffffffffffffffffffffffff16141561125d57838281518110611202577f4e487b7100000000000000000000000000000000000000000000000000000000600052603260045260246000fd5b6020026020010151858481518110611243577f4e487b7100000000000000000000000000000000000000000000000000000000600052603260045260246000fd5b6020026020010181905250828061125990611981565b9350505b808061126890611981565b9150506110c4565b505b808061127d90611981565b915050610fee565b5082935050505090565b82805461129b9061194f565b90600052602060002090601f0160209004810192826112bd5760008555611304565b82601f106112d657805160ff1916838001178555611304565b82800160010185558215611304579182015b828111156113035782518255916020019190600101906112e8565b5b509050611311919061139f565b5090565b82805482825590600052602060002090810192821561138e579160200282015b8281111561138d5782518260006101000a81548173ffffffffffffffffffffffffffffffffffffffff021916908373ffffffffffffffffffffffffffffffffffffffff16021790555091602001919060010190611335565b5b50905061139b919061139f565b5090565b5b808211156113b85760008160009055506001016113a0565b5090565b60006113cf6113ca84611813565b6117e2565b9050828152602081018484840111156113e757600080fd5b6113f284828561190d565b509392505050565b60008135905061140981611a68565b92915050565b60008083601f84011261142157600080fd5b8235905067ffffffffffffffff81111561143a57600080fd5b60208301915083602082028301111561145257600080fd5b9250929050565b600082601f83011261146a57600080fd5b813561147a8482602086016113bc565b91505092915050565b60008135905061149281611a7f565b92915050565b60008060008060008060008060e0898b0312156114b457600080fd5b60006114c28b828c01611483565b985050602089013567ffffffffffffffff8111156114df57600080fd5b6114eb8b828c01611459565b975050604089013567ffffffffffffffff81111561150857600080fd5b6115148b828c01611459565b965050606089013567ffffffffffffffff81111561153157600080fd5b61153d8b828c01611459565b955050608089013567ffffffffffffffff81111561155a57600080fd5b6115668b828c01611459565b94505060a06115778b828c016113fa565b93505060c089013567ffffffffffffffff81111561159457600080fd5b6115a08b828c0161140f565b92509250509295985092959890939650565b60006115be83836115de565b60208301905092915050565b60006115d683836116f9565b905092915050565b6115e7816118d1565b82525050565b60006115f882611863565b611602818561189e565b935061160d83611843565b8060005b8381101561163e57815161162588826115b2565b975061163083611884565b925050600181019050611611565b5085935050505092915050565b60006116568261186e565b61166081856118af565b93508360208202850161167285611853565b8060005b858110156116ae578484038952815161168f85826115ca565b945061169a83611891565b925060208a01995050600181019050611676565b50829750879550505050505092915050565b60006116cb82611879565b6116d581856118c0565b93506116e581856020860161191c565b6116ee81611a57565b840191505092915050565b600060e08301600083015161171160008601826117b1565b506020830151848203602086015261172982826116c0565b9150506040830151848203604086015261174382826116c0565b9150506060830151848203606086015261175d82826116c0565b9150506080830151848203608086015261177782826116c0565b91505060a083015161178c60a08601826115de565b5060c083015184820360c08601526117a482826115ed565b9150508091505092915050565b6117ba81611903565b82525050565b600060208201905081810360008301526117da818461164b565b905092915050565b6000604051905081810181811067ffffffffffffffff8211171561180957611808611a28565b5b8060405250919050565b600067ffffffffffffffff82111561182e5761182d611a28565b5b601f19601f8301169050602081019050919050565b6000819050602082019050919050565b6000819050602082019050919050565b600081519050919050565b600081519050919050565b600081519050919050565b6000602082019050919050565b6000602082019050919050565b600082825260208201905092915050565b600082825260208201905092915050565b600082825260208201905092915050565b60006118dc826118e3565b9050919050565b600073ffffffffffffffffffffffffffffffffffffffff82169050919050565b6000819050919050565b82818337600083830152505050565b60005b8381101561193a57808201518184015260208101905061191f565b83811115611949576000848401525b50505050565b6000600282049050600182168061196757607f821691505b6020821081141561197b5761197a6119f9565b5b50919050565b600061198c82611903565b91507fffffffffffffffffffffffffffffffffffffffffffffffffffffffffffffffff8214156119bf576119be6119ca565b5b600182019050919050565b7f4e487b7100000000000000000000000000000000000000000000000000000000600052601160045260246000fd5b7f4e487b7100000000000000000000000000000000000000000000000000000000600052602260045260246000fd5b7f4e487b7100000000000000000000000000000000000000000000000000000000600052604160045260246000fd5b6000601f19601f8301169050919050565b611a71816118d1565b8114611a7c57600080fd5b50565b611a8881611903565b8114611a9357600080fd5b5056fea2646970667358221220aed86cc3e689c6346c251990c37676a9672158879c970b9352d5e1b8029293d864736f6c63430008000033",
  "linkReferences": {},
  "deployedLinkReferences": {}
}